:100000000C9434000C9451000C9451000C94510049
:100010000C9451000C949B000C9451000C945100D2
:100020000C9451000C9451000C9451000C94C1009C
:100030000C9451000C94DD000C9451000C94510070
:100040000C9451000C9451000C9451000C945100EC
:100050000C9451000C94DE000C9451000C9451004F
:100060000C9451000C94510011241FBECFEFD8E026
:10007000DEBFCDBF11E0A0E0B1E0ECE0F3E002C0F4
:1000800005900D92AC30B107D9F721E0ACE0B1E0BA
:1000900001C01D92AE30B207E1F70E946E010C94D0
:1000A00084010C9400009C0184FF38C06430D0F5BA
:1000B00080916900862B80936900E89A23FF0AC02B
:1000C0008091690094E0699FA0011124842B8093A2
:1000D0006900E99A81E0F901E270FF27A901417006
:1000E000552722FF21C080916800816080936800BD
:1000F00060936B00EF2B39F08091680082608093F1
:10010000680060936C00452B39F080916800846032
:100110008093680060936D0078940CC083FF02C0E8
:10012000643070F280E0D7CFEF2B31F7452B69F7C1
:100130008111F2CF08951F921FB61F9211248F9341
:100140009F934B9916C08FEC97E00197F1F700C091
:1001500000004B990EC080910D0181110AC05A9A7E
:1001600081E080930D019F918F911F901FBE1F9082
:10017000189580910D018823B1F35A9810920D01C2
:10018000F2CF1F921FB61F9211248F9380910C0102
:1001900081110AC05F9A289881E080930C018F91A9
:1001A0001F901FBE1F90189580910C018823B9F3F2
:1001B0005F98289A10920C01F2CF18951F920F9217
:1001C0000FB60F9211242F933F934F935F936F932A
:1001D0007F938F939F93AF93BF93EF93FF93809100
:1001E000780090917900880F991F880F991F8A5B7A
:1001F0009A4F90938900809388000E945D01FF913F
:10020000EF91BF91AF919F918F917F916F915F918E
:100210004F913F912F910F900FBE0F901F90189507
:1002200087BD81E080936E0083E884BD85E085BD55
:100230000895609389008093880082E080936F0026
:1002400082E88093800085E08093810008959093F8
:1002500089008093880080E29EE4909387008093D9
:10026000860081E080936F0082E8809380008AE1BD
:100270008093810008951092C50083E38093C400A9
:10028000E0ECF0E080818D7F808388E18093C10085
:100290008EE08093C20008959091C00095FFFCCF3E
:1002A0008093C60008958091C60008958091C00093
:1002B00087FFFCCF8091C6000895EAE7F0E08081D7
:1002C000806480830895806480937C008FE88093AD
:1002D0007A0081E080937E000C945D0184E88AB905
:1002E00083E084B988E08BB968E081E090E00E9407
:1002F0005300789480910001909101010E942701A0
:0C03000080E00E946301FFCFF894FFCF63
:0C030C00CE1801CE18CE18CE18CE180066
:00000001FF
