:100000000C9434000C943E000C943E000C943E0082
:100010000C943E000C943E000C943E000C943E0068
:100020000C943E000C943E000C943E000C943E0058
:100030000C943E000C943E000C943E000C943E0048
:100040000C943E000C943E000C943E000C943E0038
:100050000C943E000C943E000C943E000C943E0028
:100060000C943E000C943E0011241FBECFEFD8E04C
:10007000DEBFCDBF0E9440000C946F000C940000C6
:100080008FEF84B981E085B92FE131EA87E0215013
:1000900030408040E1F700C0000081E0863089F404
:1000A00085E095B1969595B99FE121EA37E09150A9
:1000B00020403040E1F700C0000081508111F1CFB5
:1000C00081E095B1990F95B99FE121EA37E0915010
:1000D00020403040E1F700C000008F5FDFCFF89490
:0200E000FFCF50
:00000001FF
