:100000000C9434000C943E000C943E000C943E0082
:100010000C943E000C943E000C943E000C943E0068
:100020000C943E000C943E000C943E000C943E0058
:100030000C943E000C943E000C943E000C943E0048
:100040000C943E000C943E000C943E000C943E0038
:100050000C943E000C943E000C943E000C943E0028
:100060000C943E000C943E0011241FBECFEFD8E04C
:10007000DEBFCDBF0E945F000C9470000C940000A6
:100080001092C50087E68093C400E0ECF0E0808128
:100090008D7F808388E18093C1008EE08093C200D1
:1000A00008959091C00095FFFCCF8093C6000895FD
:1000B0008091C00087FFFCCF8091C60008950E9408
:1000C00040008FE384B9C0E20E94580090ED980F81
:1000D0009A3020F495B90E945100F6CFC5B9FBCFF4
:0400E000F894FFCFC2
:00000001FF
